:1000000000400020791700007717000075170000E6
:1000100000000000000000000000000000000000E0
:100020000000000000000000000000007717000042
:1000300000000000000000007717000077170000A4
:100040007517000075170000751700007517000080
:100050007517000075170000751700007517000070
:100060007517000075170000751700007517000060
:100070007517000075170000751700007517000050
:100080007517000075170000751700007517000040
:100090007517000075170000751700007517000030
:1000A0007517000075170000751700007517000020
:1000B00010B57F222121024B00F043FF10BDC04646
:1000C000C500000070B57F24087804400020212C72
:1000D00020D1487806283DD82D4C800020588746EE
:1000E0002C491568087803284DD0062834D0002400
:1000F0000021297015686C701468A1701468E17093
:100100001468207112680120517106221A80049B24
:10011000214A1A6070BD02221E4B01201A70F9E7B5
:100120001C49126809780120117001221A80F1E738
:10013000184B01201A780A2AECD1083A1A70E9E71C
:10014000002B02D01888002809D10622114B01206B
:100150001A70DFE70020DDE707200870C7E78D7819
:10016000C9780E480E4C09022943015380211B888F
:100170004901435211681A0000F0F2F80322054BBE
:1001800001201A70C6E7042064240870B0E7C04656
:10019000441A000024000020A501000028000020CF
:1001A00008100000F8B52B4F3B78042B10D0072B1C
:1001B0000DD10121284A13780B431370802292013C
:1001C000264913680B40802189058B4238D0F8BD41
:1001D000234D244BEB5A002B1FD12B78212B0DD014
:1001E000412B17D1AA786878EB781202024328795C
:1001F0001B041A430006104300F0AAFAA9786B7892
:10020000EA78090219432B79120411431B06164A96
:100210000B43AB5005233B70D9E7134BEC58043B21
:10022000E6182D1B200000F093FA20002919013454
:10023000FF3400F0C5FAB442F4D105233B70C6E7A1
:100240000A4B1A60136883F30888094B1B689847A8
:10025000BDE7C04624000020005000410000FE2FF2
:1002600028000020081000000410000008ED00E045
:100270000420000010B52E4884B000F05DF9802104
:1002800000222C48090500F0F1FA0021002000F0BE
:1002900025FA2022284C0621E36900201343E3615C
:1002A00000F0D0F80121062000F0E0F880210622BD
:1002B0002048490400F0BAFA802106221D4889042A
:1002C00000F0B4FA3823E35C402B18D180235B01A3
:1002D00002931A4B1A4A019304231A4900931A48AD
:1002E0001A4B00F0F9FC0400194901F0B1F90021A2
:1002F000200000F022FD200000F018FDFBE7802127
:100300000C48090500F076FA0028DFD0802292011F
:10031000104913680B40802189058B42D6D10E4BC2
:100320001A60136883F308880C4B1B689847CDE765
:100330000000002000440041000400403410002070
:10034000C01A0000D01A0000281B00001400002072
:10035000B10000000000FE2F08ED00E004200000C6
:10036000F0B5C64600B50F2A41D903270D003E005F
:1003700005430C0003002E402F423DD11500103DD7
:100380002D09A8462D01AC46844427681D001F6036
:1003900067685F60A7689F60E7681034DF601033AC
:1003A0006545F2D145460F230C2401352D0149192D
:1003B00013404519144222D08C59AC5104369C1B71
:1003C000032CF9D8043B9B0801339B00ED18C91896
:1003D00003231A40561E002A06D00023CC5C1A00C4
:1003E000EC5401339642F9D180BCB846F0BD05000B
:1003F000561E002AF1D1F7E70500561EEDE71A0058
:10040000F6E7C04662B6704772B6704770B5050031
:100410000C00FFF7F9FF0A4A5378DB09FCD10F20E3
:10042000F82105408020240249010C402C43400261
:10043000044354605378DB09FCD1FFF7E3FF70BD40
:10044000000C004070B504000D00FFF7DDFF3F21F8
:100450000F22054B0D409D70D878144090432043E7
:10046000D870FFF7CFFF70BD000C004070B50500DD
:100470000C00FFF7C9FF3F204022064B05409D704E
:10048000D978A401144091430C43DC70FFF7BAFF04
:1004900070BDC046000C004070B505000C00FFF7B1
:1004A000B3FF074B1D70074B5A78D209FCD19968EE
:1004B000054A2402114021439960FFF7A3FF70BD54
:1004C000080C0040000C0040FF0000FF144B1B68AC
:1004D0009B0E3F2B00D1203B124A12689205910DD2
:1004E000114A914200D1114980209A02104B0A43CF
:1004F000998C814399841021D8680842FCD09A6273
:100500000C4ADA62932252009A84173AFF3AD96869
:100510001142FCD08022998C0A439A847047C046CD
:100520002460800028608000FF030000FF010000BD
:100530000008004080BB000070B50400FFF762FFB8
:10054000C223354DDB00AB60022000F0BBF8FFF7A3
:10055000BDFFFE22314BD2031B689B021340304A81
:100560001343AB6102232A6A13432B6280232A6A56
:1005700013432B6208232B4A91690B439361012398
:10058000294A11781943117011780D001D40194244
:10059000FAD1A1780120FFF739FFA1880120FFF7E8
:1005A0007BFFA1790220FFF731FFE1790220FFF7FD
:1005B00073FF217A0320FFF729FF617A0320FFF7F9
:1005C0006BFFA17A0420FFF721FFE17A0420FFF7F7
:1005D00063FF217B0520FFF719FF617B0520FFF7F3
:1005E0005BFFA17B0620FFF711FFE17B0620FFF7F1
:1005F00053FF217C0720FFF709FF617C0720FFF7ED
:100600004BFF28002178FFF701FF28006178FFF7F2
:1006100043FF280070BDC0460008004024608000F1
:100620008603000000040040000C00401E22044B22
:10063000198B0A431A830222197D0A431A757047DF
:1006400000400041802110B5124BC9025C685A6815
:100650001143114A5960024392B21A800122197D56
:100660001142FCD05C60198B890811420AD1198BA8
:10067000C908114209D11B8B1B09180010401342F5
:1006800005D110BD02204042FBE70320FBE7042018
:10069000F9E7C0460040004100A5FFFF70B5084ED5
:1006A0000500337D0C00DB0707D56410FFF7BEFFA4
:1006B0002800F461FFF7C6FF70BD01204042FBE750
:1006C000004000411E21044A4000536808408B430B
:1006D000184350607047C046004000411022184B3C
:1006E00070B50D00596904000A435A610422D969A2
:1006F0000A43DA61FFF79AFF124B1A7DD2071CD525
:10070000C02280219200240214401E22C902AD049E
:100710000D4080215868104004432C430C435C601A
:100720009A6878395203520F91400A000020064916
:100730000A809A68054B1A8070BD01204042FBE791
:1007400000040040004000413620002034200020FA
:10075000044B10B51B889B00594201400220FFF753
:100760009DFF10BD36200020134B70B51D88134B24
:100770006E423040C60F1B7D36180C007610DB072A
:1007800016D54420FFF75EFFFFF750FF00237600E9
:100790009D4203D80420FFF755FF70BDE218517841
:1007A000E25C09020A43023332809BB20236EFE771
:1007B00001204042F1E7C0463620002000400041C1
:1007C000F7B50E0004240025094B1F88BB005B42CF
:1007D00018400190019B71195819FFF7C5FF0028B7
:1007E00004DB013CED19002CF4D12000FEBDC04615
:1007F00036200020006A0840431E984170470000E0
:100800000300012010B500220F2407494042002BAD
:1008100005D0180020400856002801DB801810BDC4
:1008200004321B09F3E7C046181B000070B5050031
:1008300008001400FFF7E4FF2B00403301261B18CB
:10084000082C03D11A78B2431A7070BD41083035B4
:1008500049190A78304207D024011443E4B2012236
:100860000C7019780A43EFE71443F8E770B50400F9
:1008700008000D001600FFF7C3FF230040330422D9
:1008800065601B18F1070BD519780A431A70A5612A
:10089000626A10430222606219780A431A7070BDBE
:1008A0001978914319706561F2E700007F21074BC9
:1008B00007481A780A401A70022219780A431A70F7
:1008C000044A5A621D221A837047C04600500041F4
:1008D00040230020402200207F20054A0140937AD7
:1008E00083430B4380219372937A0B439372704737
:1008F00000500041F0B585B002927F220A4001927B
:100900000222202B11D008D80022082B0DD0013252
:10091000102B0AD000BE002207E01C004022403C01
:100920009443A4B23D3A002CF4D14EB2019949014E
:10093000002E2EDB029C002C2BD00A9C002C65D1B3
:10094000068B364D364C751965542F0A641867703E
:100950002F0C2D0EE570334DA7709F0312073D40FD
:100960001543002222712A0A6271F3182A0C2D0EF7
:10097000A271E57103832C4B0F22C91801234B711F
:100980008B724B789343029A01321343DBB24B7064
:1009900031E00A9C002C05D00C24019D6C430A9D7B
:1009A0000419A566048B1E4FA4467F183D001B4CFE
:1009B00064443C74270A6F74270C240EEC740024E2
:1009C0002C756C75AC751401EC756446E418AF7445
:1009D00004830224144D4D196C71AC72029C6F7823
:1009E0000134240103940F242740039C2743FFB2C2
:1009F0006F70002EA1DA029B002B05D1019B0A4AE1
:100A00005B019B1810229A7205B0F0BD0C24019D69
:100A10006C430A9D0419E56692E7C0463820002021
:100A20004022002000C0FF0FFF5000419021002213
:100A3000094B49005A5420315A5420315A5420311C
:100A40005A5420315A5420315A5420315A54036890
:100A5000DB795B0003837047005000414BB2002BF1
:100A60001ADC7F2319400B0008335B01002A09D0F0
:100A70000B4A9B1820225A710A4B4901C9181023AE
:100A80004B717047064A9B1822221A71054B490187
:100A9000C91811230B71F4E7002AF7D0ECE7C04620
:100AA00000500041005100414BB208314901002B78
:100AB00005DA054BC9182023887918407047024B86
:100AC000C91888791023F8E7005000414BB2002B79
:100AD00009DB074B5A54083140234901002A03D04F
:100AE000044A89184B717047024A89180B71FAE75A
:100AF0003822002000500041F7B52E4B04009B8B9C
:100B00009AB201921B0704D500F029F90823294A5B
:100B10009383270000266837274975016B181A7AD6
:100B2000002A23D010221B7A6D18134207D0BB680D
:100B3000002B02D02000F1B2984710232B72022222
:100B40002B7A134207D03B68002B02D02000F1B271
:100B5000984702232B722B7ADB0707D57B68002B83
:100B600002D02000F1B2984701232B7201360C37D6
:100B7000082ED1D1019BDB0706D5236A002B00D0BC
:100B8000984701230B4A9383019BDB0606D5636AD2
:100B9000002B00D098471023064A9383019B5B07E4
:100BA00006D5A36A002B00D098470423014A9383FB
:100BB000F7BDC04600500041FF500041F7B501921B
:100BC0001F4A0C0049018A1800921E4A00258A1803
:100BD000D279520632D51C4F7D186A792E791202CD
:100BE0003243AE7936043243EE7936061643920428
:100BF000920C9A4200D91A000020B30B7E18307173
:100C00009801707198089B0AB071F3717378795CE0
:100C10001B02B7780B43F1783F043B4309061943A5
:100C2000019895B2FFF79CFB084B1B5D002B05D18B
:100C30004022009BFF3359790A435A712800FEBDB8
:100C400000500041FF500041402200203822002087
:100C5000F8B508001C007F2311000340154A5B0112
:100C60009E18F279D20922D1134AD3181D005A7C5A
:100C7000187C9F7C12020243D87C3F043A43000652
:100C800010432200FFF76CFBE97DA30409099B0CCC
:100C9000090719430B0A6B7500238022AB75B379E2
:100CA00029751343090EE975B3712000F8BD0024BE
:100CB000FBE7C046FF500041402200200122054BC7
:100CC000002903D019890A431A8170471989914371
:100CD0001981FAE700500041F7B51D000AAB1B88E7
:100CE0001600019303680F00040098470300DC33EB
:100CF0001C60089B0200C360099BC8320361019B12
:100D000007608382064B46600367064B8560C366B7
:100D1000054B83660023136053609360D360FEBD70
:100D2000730F0000EB0F00006D100000030010B502
:100D3000DC331B685B6A984710BD0300DC331B681B
:100D400010B59B6A002B00D0984710BD37B5040042
:100D5000069DDC3424680095A468A04737BD37B5EC
:100D6000002504000368C582DB792A00290000956C
:100D7000FFF7ECFF2300DC331B6829005B682000D1
:100D80009847E369AB4200D0984737BD10B50400DF
:100D9000DC342468E469A04710BD10B50400DC34DD
:100DA0002468246AA04710BD030010B5DC331B681B
:100DB0001B69984710BD030010B5DC331B689B69A5
:100DC000984710BD030010B5DC331B685B6998477A
:100DD00010BD10B5012204000021FFF7E5FF00233C
:100DE0002C34237010BD70B50368828FC58EDB79FB
:100DF0000400AD1A9D4200DD1D00A36BAEB29A182F
:100E0000002133002000FFF7C8FF864205D02000F4
:100E1000FFF7DFFF0120404270BDA38FA8B2F61894
:100E2000A687F9E770B5050003680400D979838FB8
:100E3000826B2C3599420ED20B000021FFF7A6FFE2
:100E400002232B702368D979A36B5A18A38FA2634E
:100E50005B1AA38770BD0021FFF798FF2200443280
:100E6000137859424B4102332B7000231370A38730
:100E7000A363EFE70300F0B5050004000E0087B0A0
:100E80006833483505932B6827009C462300383388
:100E9000049363463C370397002B07D131002000B1
:100EA000039B049A00F04AFC07B0F0BD31786B79DF
:100EB0002A790B409A4204D0059B08359D42E2D125
:100EC000ECE7230040330093310020006746039B8A
:100ED000049AB8470128EFD8E6E770B50369040023
:100EE0008363CB798A791B02134383870D00FFF755
:100EF000C1FF002821D0EB79AA791B02134313D03C
:100F00002268A08FD1790022834206D9904204D072
:100F100000F064FD4B425941CAB223004433200023
:100F20001A70FFF77FFF70BD1A0019002000FFF74D
:100F30002DFF04232C342370F5E72000FFF749FF31
:100F4000F1E7F0B50700040000254837EE00B85976
:100F5000002805D00135042DF8D101204042F0BD14
:100F6000A41925004C35297021004D310A70A36465
:100F7000F5E770B50600002504000122290005648C
:100F80003036FFF71FFF0823320029002000FFF74B
:100F900004FF082803D02000FFF71BFF70BD2300CB
:100FA00036331A7801331B781B02134304D1310006
:100FB0002000FFF792FFF1E732787F2AF7D8A28A64
:100FC0009A42E8D329002269A587A26322682000FB
:100FD000D2799A42694122000B002C3205331370FA
:100FE00029002A00FFF7EEFED8E770B505002C3582
:100FF0002B780400062B11D0072B26D0052B21D1EE
:10100000FFF7F1FE002808DBA28FE38E9B1A22680F
:10101000D279934201DC06232B7070BDFFF7E3FE0B
:101020000028FADB210020003031FFF723FF0028E1
:1010300007D0002320001A001900FFF7A7FE0423A1
:10104000EAE72000FFF7C5FEE7E700231A001900D2
:10105000FFF7A3FE00232B70236C002B03D021008D
:1010600020003031984700232364D6E770B505008F
:101070002C352B780400032B06D0042B0BD0022B2D
:1010800021D1FFF7CFFE70BD072300222B70110086
:10109000FFF798FEF7E70600036C3036002B01D00F
:1010A000310098473378002B0AD17378052B07D18C
:1010B000230032331978AA331B6820005B689847F5
:1010C00000232B70DFE7FFF784FEDCE710B5002478
:1010D0000A78A24213D18C78C978090221431400FE
:1010E0007F290CD80300C9B28175DC331B68012449
:1010F0001A0030321278002A01D05B68984720002D
:1011000010BDF8B5CA788B78120204000D001A439E
:1011100010D003680D26587C0023984201D8002087
:10112000F8BD31005943676879184979914203D075
:101130000133F2E701235B420133DBB2E375002B9D
:101140000CD123002600DC331B682000DB68C83686
:1011500098473368002B1CD10120E1E70D2253434F
:1011600062680D3BD3180022170019799142E8D923
:101170009E7A597AD87A36020E43197B00040643C8
:101180000906314310014158002900D00F70013287
:10119000EBE700232700A3642365A3652366D83704
:1011A0003368002B05D0E978AA78090220001143A2
:1011B00098470436B742F3D1CEE7198810B5012914
:1011C00001D901211980C17D1468002908D00D22A0
:1011D000514343685B180D3B5B792370012010BDC0
:1011E0002170FBE7F8B50D261D00C37D4C795E43E9
:1011F00043680D3E9E190B7924021C43337900226B
:10120000A3422BD9B77A737AF27A3F021F43337B1A
:10121000120417431B0624013B431B19CC788A7820
:101220001E79240214430022A64217D91A68002A04
:1012300012D014700300D8331B68002B08D0CA7872
:101240008C78120222430C7949790902214398478C
:10125000002301222B8001E0002CEBD01000F8BD10
:1012600070B50D24C57D40686C430D3C04194D7963
:10127000087926792D0205430020AE4217D90130A6
:101280001880A57A607AE37A2D0205431B041D437A
:101290004B79207B0C791B020006234328431B015A
:1012A0001B58191E00D0197801201368197070BDE1
:1012B0001988022901D9022119800023116801200F
:1012C0000B7012685370704710B514001A88022A08
:1012D00001D902221A800979FFF76DFD431E98415A
:1012E000002223681870236801205A7010BD10B5C1
:1012F00001220979FFF758FD012010BD10B5002229
:101300000979FFF751FD012010BD0000F0B58DB047
:101310000593CB788C781B021C43060017001B0A30
:10132000022B13D0032B00D13AE10020012B0BD16B
:10133000336819781360059B1A880B1C914200D9F9
:10134000131C059A138001200DB0F0BD0369E4B2AF
:1013500013600693059B1D880D235C4343681A198F
:1013600003921A5D131CAA4200D92B1C9BB21A00CF
:10137000039906980293FEF7F3FF029A069B9446A0
:1013800063440193039BAD1A1B78AFB2049300230F
:101390000793039B1A796B469B8B9A4206D8069B50
:1013A000049A5A80059B029A1A80CCE7079B039AFD
:1013B0001B010B93039B917A5B7A0902194313007B
:1013C000D27A1B7B120411431B060B9A0B439B180A
:1013D0009D68002D18D02B781C1CBB4200D93C1CEA
:1013E000A4B2220029000198FEF7BAFF019B3F1B1F
:1013F0001B190193029B049AE418A3B202932B7861
:10140000BFB2D3189BB204930023039A0893039BA3
:10141000917A5B7A090219431300D27A1B7B12047A
:1014200011431B060B9A0B439B186A461979128CC1
:10143000914202D8079B0133AAE7DA68152308997D
:101440004B43D418D35C1D1CBB4200D93D1CADB22C
:101450002A0021000198FEF783FF019B7F1B5B1987
:101460000193029B049AED18ABB202932378BFB2AA
:10147000D3189BB20493A37B627B1B02E17B1A43CC
:10148000237C090411431B06194322D0A27C657CEE
:10149000E37C12022A43257D1B041A432D061543C3
:1014A000BD4200DD3D00AEB232000198FEF758FFAC
:1014B000019BBF1B9B190193029B049A9E19B3B217
:1014C0000293A37C617C1B020B439B189BB2BFB2AF
:1014D0000493002309936B4622799B8C9A4202D88D
:1014E000089B013391E7A17A637AE27A09021943F2
:1014F000120411430F22237B1B060B4309994A4315
:101500009D189B5C1E1CBB4200D93E1CB6B232002B
:1015100029000198FEF724FF019BBF1B9B19019333
:10152000029B049AF618B3B202932B78BFB2D31879
:101530009BB204932B7AEA791B02697A1A43AB7A3D
:10154000090411431B06194327D02A7BEE7A6B7BD3
:1015500012023243AE7B1B041A4336061643BE42C8
:1015600000DD3E00B3B21E001A0001980A93FEF798
:10157000F7FE0A9A019B94469B1901930A9B049AD1
:10158000FF1A029BBFB263449BB202932B7BE97AA2
:101590001B020B439B189BB20493099B013399E7F1
:1015A000E4B20569002C10D10923059AAB70053B04
:1015B000EB702B7011880A1C994200D91A1C059BEC
:1015C0001A8003236B703D60BDE68268013C101EEB
:1015D00000D1B9E6F3680020A34200DCB4E64B7901
:1015E000087914491B02034300208B4200D0ABE66C
:1015F000A400105900F0F8F901304000059BC0B27A
:1016000028701A88131C824200D9031C059A138083
:101610000023059A12885208013A9A42D1DDB16836
:101620005A000959AA18C95C013391700021D17080
:10163000EFE7C046090400001988022901D90221F8
:1016400019800023116801200B70126853707047D5
:1016500010B5040002000023C83498002058002868
:1016600005D00133042BF8D10120404210BD3233A4
:101670009B009950FAE7000070B5050048780928EA
:1016800012D800F0BBF80D111111110F0B11090543
:10169000064C2800A04770BD054CFAE7054CF8E75A
:1016A000054CF6E7054CF4E70020F4E703110000D1
:1016B000BB1100000D130000B1120000CD1000009E
:1016C00070B54C7805000A2C08D00B2C08D00020EF
:1016D000844202D1034C2800A04770BD024CFAE7B7
:1016E000024CF8E73916000061120000E511000015
:1016F00070B505004878012805D003280CD00028D3
:1017000013D0002070BDC8788C7800022043084CAC
:10171000F7D12800A047F5E7CC7888782402044365
:1017200000208442EED1034CF3E7034CF1E7C046BE
:10173000FD120000EF120000C9120000F8B50D788C
:1017400060262F000024374035420BD11F3425403E
:10175000012D09D0022D0AD03C00002D02D1FFF747
:101760008BFF04002000F8BDFFF7AAFFF9E7FFF7A1
:10177000BFFFF6E7FEE77047154B164A16498B4246
:1017800017D30021154A934216D38023144A9B0095
:101790001168144C0B431360134B9C420ED3134C33
:1017A000134B9C420DD3FEF765FD124C124B9C422D
:1017B0000AD301CA01C3E2E702C3E4E708CC9847B1
:1017C000EAE708CC9847EBE708CC9847EEE7C04635
:1017D000000000205C1B0000280000203C240020AA
:1017E00014ED00E05C1B00005C1B00005C1B0000B3
:1017F0005C1B00005C1B00005C1B000002B4714617
:1018000049084900095C49008E4402BC7047C04643
:1018100003460B437FD4002243088B4274D3030951
:101820008B425FD3030A8B4244D3030B8B4228D3F2
:10183000030C8B420DD3FF22090212BA030C8B4218
:1018400002D31212090265D0030B8B4219D300E0B8
:10185000090AC30B8B4201D3CB03C01A5241830B3D
:101860008B4201D38B03C01A5241430B8B4201D3ED
:101870004B03C01A5241030B8B4201D30B03C01A16
:101880005241C30A8B4201D3CB02C01A5241830A90
:101890008B4201D38B02C01A5241430A8B4201D3BF
:1018A0004B02C01A5241030A8B4201D30B02C01AE9
:1018B0005241CDD2C3098B4201D3CB01C01A524150
:1018C00083098B4201D38B01C01A524143098B42D9
:1018D00001D34B01C01A524103098B4201D30B01C2
:1018E000C01A5241C3088B4201D3CB00C01A5241E7
:1018F00083088B4201D38B00C01A524143088B42AC
:1019000001D34B00C01A5241411A00D20146524144
:10191000104670475DE0CA0F00D04942031000D363
:101920004042534000229C4603098B422DD3030AB8
:101930008B4212D3FC22890112BA030A8B420CD3C8
:10194000890192118B4208D3890192118B4204D3F1
:1019500089013AD0921100E08909C3098B4201D371
:10196000CB01C01A524183098B4201D38B01C01AAB
:10197000524143098B4201D34B01C01A5241030922
:101980008B4201D30B01C01A5241C3088B4201D3D1
:10199000CB00C01A524183088B4201D38B00C01A7E
:1019A0005241D9D243088B4201D34B00C01A524155
:1019B000411A00D20146634652415B10104601D3E2
:1019C0004042002B00D54942704763465B1000D36C
:1019D000404201B5002000F005F802BD0029F8D012
:1019E00016E770477047C04610B583070AD003005A
:1019F000032102E001330B4205D01A78002AF9D105
:101A0000181A10BD030019680C4A0D4C8A188A4335
:101A100022420FD15968094A04338A188A43224264
:101A200008D15968054A04338A188A432242F1D002
:101A300000E001331A78002AFBD1E1E7FFFEFEFE49
:101A400080808080540100004001000054010000AB
:101A5000E00000003001000020010000160100003D
:101A6000426C61636B2053706865726520546563D6
:101A7000686E6F6C6F67696573000000444655209F
:101A800044656D6F0000000044454D4F00000000AC
:101A900040496E7465726E616C20466C617368209B
:101AA00020202F307830303030303030302F312A15
:101AB0003030384B612C31352A3030384B670000DC
:101AC00009020000010100C032081B0000000000F4
:101AD0001201000200000040501D176000020102C8
:101AE00003010000092109FF0000101A0100000095
:101AF0000904000000FE01020400000000E41A00D6
:101B000000090000000000000000000001000000CB
:101B100000000000F01A0000FF00010002000100B8
:101B20000300010002000100AD080000D908000018
:101B3000F50800002D0A00005D0A0000CD0A000033
:101B4000A90A0000510C0000BD0B0000F90A0000BA
:0C1B5000BD0C00000000000000000000C0
:101B5C0007000600640007000701060107000700E4
:101B6C0007000000601A00007C1A0000881A0000B0
:081B7C00901A000002000000B5
:040000030000177969
:00000001FF
